:100000000C942A000C943F000C943F000C943F0089
:100010000C943F000C943F000C943F000C943F0064
:100020000C943F000C943F000C943F000C943F0054
:100030000C943F000C943F000C943F000C943F0044
:100040000C943F000C943F000C943F000C943F0034
:100050000C943F0011241FBECFE5D8E0DEBFCDBF1A
:1000600010E0A0E6B0E0EAE1F7E002C005900D92F2
:10007000A03AB107D9F70E9424020C948B030C9488
:10008000000080E0D4C0982F969596959695282FDD
:1000900027709130C9F138F0923009F466C093307E
:1000A00009F494C0C3C0482F50E0FA01EE0FFF1FBF
:1000B000E05AFF4F9081913069F49AB341E050E0EB
:1000C000BA0102C0660F771F2A95E2F79B01292B20
:1000D0002ABBACC09AB361E070E0FB0102C0EE0F36
:1000E000FF1F2A95E2F79F016E2F609596239ABB1A
:1000F000440F551FFA01E05AFF4F9181911196C0AC
:100100009BB3292B2BBB92C0482F50E0FA01EE0F76
:10011000FF1FE05AFF4F9081913069F497B341E09F
:1001200050E0BA0102C0660F771F2A95E2F79B01E3
:10013000292B27BB7BC097B361E070E0FB0102C0B5
:10014000EE0FFF1F2A95E2F79F016E2F6095962311
:1001500097BB440F551FFA01E05AFF4F918191114F
:1001600065C098B3292B28BB61C0482F50E0FA0125
:10017000EE0FFF1FE05AFF4F9081913069F494B366
:1001800041E050E0BA0102C0660F771F2A95E2F7FE
:100190009B01292B24BB4AC094B361E070E0FB01B2
:1001A00002C0EE0FFF1F2A95E2F79F016E2F6095A8
:1001B000962394BB440F551FFA01E05AFF4F9181DB
:1001C000911134C095B3292B25BB30C0482F50E086
:1001D000FA01EE0FFF1FE05AFF4F9081913069F452
:1001E00091B341E050E0BA0102C0660F771F2A9533
:1001F000E2F79B01292B21BB19C091B361E070E0AC
:10020000FB0102C0EE0FFF1F2A95E2F79F016E2F40
:100210006095962391BB440F551FFA01E05AFF4F9A
:100220009181911103C092B3292B22BB8F5F803241
:1002300008F429CF80E00895803208F045C0982F57
:1002400096959695969587709130A1F028F092300A
:10025000F9F0933059F13AC029B330E0A90102C056
:10026000559547958A95E2F7CA018170FB01808315
:1002700080E0089526B330E0A90102C05595479566
:100280008A95E2F7CA018170FB01808380E00895BE
:1002900023B330E0A90102C0559547958A95E2F74E
:1002A000CA018170FB01808380E0089520B330E0B3
:1002B000A90102C0559547958A95E2F7CA01817058
:1002C000FB01808380E0089583E0089581E0089534
:1002D000803208F08BC0982F9695969596958770EA
:1002E000913039F138F0923009F442C0933009F47A
:1002F0005EC07EC0613071F44BB321E030E0B901E3
:1003000002C0660F771F8A95E2F7CB01842B8BBB67
:1003100080E008954BB321E030E0B90102C0660FE0
:10032000771F8A95E2F7CB01809584238BBB80E011
:100330000895613071F448B321E030E0B90102C0A2
:10034000660F771F8A95E2F7CB01842B88BB80E08C
:10035000089548B321E030E0B90102C0660F771F6D
:100360008A95E2F7CB018095842388BB80E00895CD
:10037000613071F445B321E030E0B90102C0660F8D
:10038000771F8A95E2F7CB01842B85BB80E0089527
:1003900045B321E030E0B90102C0660F771F8A95AE
:1003A000E2F7CB018095842385BB80E0089561301E
:1003B00071F442B321E030E0B90102C0660F771F4B
:1003C0008A95E2F7CB01842B82BB80E0089542B38B
:1003D00021E030E0B90102C0660F771F8A95E2F78D
:1003E000CB018095842382BB80E0089583E008954B
:1003F00081E0089561E00E94680180E0089560E076
:100400000E94680180E008950E94900220E030E0A0
:1004100040E051E40E94F60226E636E646EB52E45E
:100420000E94F6020E946102AB01BC0180E090E0F4
:10043000DC0104C000000196A11DB11D84179507C1
:10044000A607B707B8F30895CF93DF9300D0CDB7D1
:10045000DEB70E94410019821A8210E02CC0BE0152
:100460006F5F7F4F8AE190E00E945E02BE016E5F87
:100470007F4F8BE190E00E945E0266E970E080E0D1
:1004800090E00E9404028981882341F08CE1810F71
:100490000E94FA011F5F143058F40DC08A8188232E
:1004A00051F08CE1810F0E94FF01115019F003C03F
:1004B00013E001C011E0143090F2FDCF0E941C0146
:1004C00008950E94D50288F09F5798F0B92F992778
:1004D000B751B0F0E1F0660F771F881F991F1AF02F
:1004E000BA95C9F714C0B13091F00E94EF02B1E0A3
:1004F00008950C94EF02672F782F8827B85F39F0A2
:10050000B93FCCF3869577956795B395D9F73EF4C7
:1005100090958095709561957F4F8F4F9F4F08956F
:10052000E89409C097FB3EF490958095709561958D
:100530007F4F8F4F9F4F9923A9F0F92F96E9BB2743
:100540009395F695879577956795B795F111F8CFBF
:10055000FAF4BB0F11F460FF1BC06F5F7F4F8F4F2A
:100560009F4F16C0882311F096E911C0772321F020
:100570009EE8872F762F05C0662371F096E8862FB8
:1005800070E060E02AF09A95660F771F881FDAF70F
:10059000880F9695879597F9089557FD9058440FC1
:1005A000551F59F05F3F71F04795880F97FB991FD2
:1005B00061F09F3F79F0879508951216130614068F
:1005C000551FF2CF4695F1DF08C01616170618061C
:1005D000991FF1CF86957105610508940895E894F7
:1005E000BB2766277727CB0197F908950E94090357
:1005F0000C947A030E946C0338F00E94730320F07D
:10060000952311F00C9463030C94690311240C944A
:10061000F0020E94CD0270F3959FC1F3950F50E058
:10062000551F629FF001729FBB27F00DB11D639FA4
:10063000AA27F00DB11DAA1F649F6627B00DA11D4A
:10064000661F829F2227B00DA11D621F739FB00DF0
:10065000A11D621F839FA00D611D221F749F332760
:10066000A00D611D231F849F600D211D822F762FF9
:100670006A2F11249F5750409AF0F1F088234AF0D6
:10068000EE0FFF1FBB1F661F771F881F9150504042
:10069000A9F79E3F510580F00C9463030C94F0027F
:1006A0005F3FE4F3983ED4F3869577956795B795C9
:1006B000F795E7959F5FC1F7FE2B880F911D9695E3
:1006C000879597F9089597F99F6780E870E060E053
:1006D00008959FEF80EC089500240A9416161706DB
:1006E00018060906089500240A9412161306140623
:1006F00005060895092E0394000C11F4882352F086
:10070000BB0F40F4BF2B11F460FF04C06F5F7F4F3D
:0A0710008F4F9F4F0895F894FFCF1C
:10071A0001010101010101010101010101010101BF
:10072A0001010101010101010101010101010101AF
:10073A00010101010101010101010101010101019F
:10074A000101010100010001010101010101010191
:00000001FF
