:100000000C942A000C943F000C943F000C943F0089
:100010000C943F000C943F000C943F000C943F0064
:100020000C943F000C943F000C943F000C943F0054
:100030000C943F000C943F000C943F000C943F0044
:100040000C943F000C943F000C943F000C943F0034
:100050000C943F0011241FBECFE5D8E0DEBFCDBF1A
:1000600010E0A0E6B0E0EAECFAE002C005900D92E4
:10007000A03AB107D9F70E94EE030C9463050C94E3
:100080000000CF93DF9300D01F92CDB7DEB78B83F4
:1000900019828B81882349F08B81803431F08B81E8
:1000A000803C19F081E0898311C087E290E0FC0177
:1000B00080818A838A818F738A839A818B81892B3D
:1000C0008A8387E290E02A81FC01208389810F9056
:1000D0000F900F90DF91CF910895CF93DF9300D0D1
:1000E0001F92CDB7DEB78B8319828B81803231F0BE
:1000F0008B81882319F081E0898311C087E290E029
:10010000FC0180818A838A818F7D8A839A818B8199
:10011000892B8A8387E290E02A81FC0120838981F0
:100120000F900F900F90DF91CF910895CF93DF93B1
:1001300000D01F92CDB7DEB78B8319828B818830B8
:1001400018F081E0898311C087E290E0FC01808192
:100150008A838A8180728A839A818B81892B8A83A0
:1001600087E290E02A81FC01208389810F900F9023
:100170000F90DF91CF910895CF93DF9300D01F921E
:10018000CDB7DEB78B8319828B81803819F081E07F
:10019000898311C086E290E0FC0180818A838A8194
:1001A0008F778A839A818B81892B8A8386E290E07C
:1001B0002A81FC01208389810F900F900F90DF919D
:1001C000CF910895CF93DF9300D01F92CDB7DEB7C4
:1001D0008B83198286E290E0FC0180818A838A8188
:1001E000887F8A839A818B81892B8A8386E290E03B
:1001F0002A81FC01208389810F900F900F90DF915D
:10020000CF910895CF93DF93CDB7DEB728970FB680
:10021000F894DEBF0FBECDBF98878F831D821982F1
:100220001A821B821C8286E290E0FC0180818E8310
:100230008E818F7B8E838E8180648E8386E290E0B8
:100240002E81FC01208316C089819A81AB81BC81FB
:100250000196A11DB11D89839A83AB83BC838981DB
:100260009A81AB81BC81883E9340A105B10510F015
:1002700081E08D8386E290E0FC018081882F90E010
:1002800080749927892B49F489819A81AB81BC813B
:10029000883E9340A105B105B8F286E290E026E2DF
:1002A00030E0F90120812061FC01208385E290E0AB
:1002B000FC018081282F30E08F819885FC013183FB
:1002C0002083000028960FB6F894DEBF0FBECDBF86
:1002D000DF91CF910895CF93DF9300D01F92CDB7D8
:1002E000DEB71A821B8219827EC189818695869526
:1002F00086958A83898187708B838A81882F90E095
:100300008130910509F464C0823091051CF4892B79
:1003100049F066C18230910509F4B0C0039709F431
:1003200003C15EC18981882F90E0880F991F805A90
:100330009F4FFC0180818130A9F48AE390E02AE399
:1003400030E0F9012081622F2B81422F50E021E023
:1003500030E002C0220F331F4A95E2F7262BFC0142
:10036000208337C18AE390E02AE330E0F90120815D
:10037000622F2B81422F50E021E030E002C0220F9B
:10038000331F4A95E2F720952623FC0120838981BB
:10039000882F90E0880F991F8F599F4FFC01808113
:1003A000882309F016C18BE390E02BE330E0F901DC
:1003B0002081622F2B81422F50E021E030E002C0EB
:1003C000220F331F4A95E2F7262BFC01208301C13F
:1003D0008981882F90E0880F991F805A9F4FFC01D8
:1003E00080818130A9F487E390E027E330E0F901D0
:1003F0002081622F2B81422F50E021E030E002C0AB
:10040000220F331F4A95E2F7262BFC012083E3C01D
:1004100087E390E027E330E0F9012081622F2B8110
:10042000422F50E021E030E002C0220F331F4A95F6
:10043000E2F720952623FC0120838981882F90E014
:10044000880F991F8F599F4FFC018081882309F0E5
:10045000C2C088E390E028E330E0F9012081622FF8
:100460002B81422F50E021E030E002C0220F331FE9
:100470004A95E2F7262BFC012083ADC08981882FA5
:1004800090E0880F991F805A9F4FFC018081813036
:10049000A9F484E390E024E330E0F9012081622FA5
:1004A0002B81422F50E021E030E002C0220F331FA9
:1004B0004A95E2F7262BFC0120838FC084E390E06D
:1004C00024E330E0F9012081622F2B81422F50E09C
:1004D00021E030E002C0220F331F4A95E2F7209559
:1004E0002623FC0120838981882F90E0880F991FA3
:1004F0008F599F4FFC018081882309F06EC085E3EE
:1005000090E025E330E0F9012081622F2B81422F1A
:1005100050E021E030E002C0220F331F4A95E2F79D
:10052000262BFC01208359C08981882F90E0880FF9
:10053000991F805A9F4FFC0180818130A9F481E38B
:1005400090E021E330E0F9012081622F2B81422FDE
:1005500050E021E030E002C0220F331F4A95E2F75D
:10056000262BFC0120833BC081E390E021E330E0B7
:10057000F9012081622F2B81422F50E021E030E0F1
:1005800002C0220F331F4A95E2F720952623FC0173
:1005900020838981882F90E0880F991F8F599F4F62
:1005A000FC0180818823D9F482E390E022E330E0EB
:1005B000F9012081622F2B81422F50E021E030E0B1
:1005C00002C0220F331F4A95E2F7262BFC0120833D
:1005D00006C0000005C0000003C0000001C000000C
:1005E00089818F5F89838981803208F47ECE80E0A3
:1005F0000F900F900F90DF91CF910895CF93DF93DD
:1006000000D000D01F92CDB7DEB78C836D831982E6
:100610008C81803218F083E08983D7C08C818695E5
:10062000869586958A838C8187708B838A81882FB3
:1006300090E081309105E1F1823091051CF4892B25
:1006400049F0C0C08230910509F460C0039709F4F5
:100650008BC0B8C08D818130A9F48BE390E02BE38F
:1006600030E0F9012081622F2B81422F50E021E000
:1006700030E002C0220F331F4A95E2F7262BFC011F
:100680002083A3C08BE390E02BE330E0F9012081CD
:10069000622F2B81422F50E021E030E002C0220F78
:1006A000331F4A95E2F720952623FC0120838DC055
:1006B0008D818130A9F488E390E028E330E0F901EE
:1006C0002081622F2B81422F50E021E030E002C0D8
:1006D000220F331F4A95E2F7262BFC01208375C0B9
:1006E00088E390E028E330E0F9012081622F2B813C
:1006F000422F50E021E030E002C0220F331F4A9524
:10070000E2F720952623FC0120835FC08D81813094
:10071000A9F485E390E025E330E0F9012081622F20
:100720002B81422F50E021E030E002C0220F331F26
:100730004A95E2F7262BFC01208347C085E390E031
:1007400025E330E0F9012081622F2B81422F50E018
:1007500021E030E002C0220F331F4A95E2F72095D6
:100760002623FC01208331C08D818130A9F482E3EE
:1007700090E022E330E0F9012081622F2B81422FAB
:1007800050E021E030E002C0220F331F4A95E2F72B
:10079000262BFC01208319C082E390E022E330E0A5
:1007A000F9012081622F2B81422F50E021E030E0BF
:1007B00002C0220F331F4A95E2F720952623FC0141
:1007C000208303C081E08983000089810F900F900E
:1007D0000F900F900F90DF91CF910895CF93DF93FB
:1007E00000D0CDB7DEB70E946B0180E40E944100CB
:1007F00080E20E946D0084E00E94960080E80E94E2
:10080000BC0087E00E94E2001A821982CE010196A4
:100810000E94020189819A81C39730F189819A816E
:100820008B34910508F561E080E10E94FE0260E0F2
:1008300081E10E94FE0260E082E10E94FE0260E02F
:1008400083E10E94FE0260E084E10E94FE0260E01B
:1008500085E10E94FE0260E086E10E94FE0260E007
:1008600087E10E94FE022EC189819A818C34910514
:1008700030F189819A818436910508F561E080E143
:100880000E94FE0261E081E10E94FE0260E082E1DE
:100890000E94FE0260E083E10E94FE0260E084E1CB
:1008A0000E94FE0260E085E10E94FE0260E086E1B7
:1008B0000E94FE0260E087E10E94FE0203C189817E
:1008C0009A818536910530F189819A818D3791051C
:1008D00008F561E080E10E94FE0261E081E10E9492
:1008E000FE0261E082E10E94FE0260E083E10E947C
:1008F000FE0260E084E10E94FE0260E085E10E9469
:10090000FE0260E086E10E94FE0260E087E10E9454
:10091000FE02D8C089819A818E37910530F1898194
:100920009A818639910508F561E080E10E94FE0216
:1009300061E081E10E94FE0261E082E10E94FE022C
:1009400061E083E10E94FE0260E084E10E94FE0219
:1009500060E085E10E94FE0260E086E10E94FE0206
:1009600060E087E10E94FE02ADC089819A818739EB
:10097000910530F189819A818F3A910508F561E0FE
:1009800080E10E94FE0261E081E10E94FE0261E0DE
:1009900082E10E94FE0261E083E10E94FE0261E0CA
:1009A00084E10E94FE0260E085E10E94FE0260E0B8
:1009B00086E10E94FE0260E087E10E94FE0282C0A2
:1009C00089819A81803B910530F189819A81883CA7
:1009D000910508F561E080E10E94FE0261E081E19D
:1009E0000E94FE0261E082E10E94FE0261E083E17A
:1009F0000E94FE0261E084E10E94FE0261E085E166
:100A00000E94FE0260E086E10E94FE0260E087E153
:100A10000E94FE0257C089819A81893C910530F17C
:100A200089819A81813E910508F561E080E10E940B
:100A3000FE0261E081E10E94FE0261E082E10E942B
:100A4000FE0261E083E10E94FE0261E084E10E9417
:100A5000FE0261E085E10E94FE0261E086E10E9403
:100A6000FE0260E087E10E94FE022CC089819A812B
:100A7000823E910508F4CACE89819A818A3F910508
:100A800008F0C4CE61E080E10E94FE0261E081E1F5
:100A90000E94FE0261E082E10E94FE0261E083E1C9
:100AA0000E94FE0261E084E10E94FE0261E085E1B5
:100AB0000E94FE0261E086E10E94FE0261E087E1A1
:0A0AC0000E94FE02A3CEF894FFCFBF
:100ACA00010101010101010100010101000101010E
:100ADA0001010101010101010101010101010101FC
:100AEA0001010101010101010101010101010101EC
:100AFA0001010101000100010101010101010101DE
:00000001FF
