:100000000C942A000C9447000C9447000C94470071
:100010000C9447000C9447000C9447000C94470044
:100020000C9447000C9447000C94D8010C94B10137
:100030000C9447000C9447000C9447000C94470024
:100040000C9447000C9447000C9447000C94470014
:100050000C94470011241FBECFE5D8E0DEBFCDBF12
:1000600010E0A0E6B0E0E2E0F4E002C005900D92FE
:10007000A03AB107D9F720E0A0EAB0E001C01D9294
:10008000A43AB207E1F70E9488010C94FF010C9496
:10009000000080E0D4C0982F969596959695282FCD
:1000A00027709130C9F138F0923009F466C093306E
:1000B00009F494C0C3C0482F50E0FA01EE0FFF1FAF
:1000C000E05AFF4F9081913069F49AB341E050E0DB
:1000D000BA0102C0660F771F2A95E2F79B01292B10
:1000E0002ABBACC09AB361E070E0FB0102C0EE0F26
:1000F000FF1F2A95E2F79F016E2F609596239ABB0A
:10010000440F551FFA01E05AFF4F9181911196C09B
:100110009BB3292B2BBB92C0482F50E0FA01EE0F66
:10012000FF1FE05AFF4F9081913069F497B341E08F
:1001300050E0BA0102C0660F771F2A95E2F79B01D3
:10014000292B27BB7BC097B361E070E0FB0102C0A5
:10015000EE0FFF1F2A95E2F79F016E2F6095962301
:1001600097BB440F551FFA01E05AFF4F918191113F
:1001700065C098B3292B28BB61C0482F50E0FA0115
:10018000EE0FFF1FE05AFF4F9081913069F494B356
:1001900041E050E0BA0102C0660F771F2A95E2F7EE
:1001A0009B01292B24BB4AC094B361E070E0FB01A2
:1001B00002C0EE0FFF1F2A95E2F79F016E2F609598
:1001C000962394BB440F551FFA01E05AFF4F9181CB
:1001D000911134C095B3292B25BB30C0482F50E076
:1001E000FA01EE0FFF1FE05AFF4F9081913069F442
:1001F00091B341E050E0BA0102C0660F771F2A9523
:10020000E2F79B01292B21BB19C091B361E070E09B
:10021000FB0102C0EE0FFF1F2A95E2F79F016E2F30
:100220006095962391BB440F551FFA01E05AFF4F8A
:100230009181911103C092B3292B22BB8F5F803231
:1002400008F429CF80E00895803208F045C0982F47
:1002500096959695969587709130A1F028F09230FA
:10026000F9F0933059F13AC04BB321E030E0B901D5
:1002700002C0660F771F8A95E2F7CB0184278BBBFC
:1002800080E0089548B321E030E0B90102C0660F74
:10029000771F8A95E2F7CB01842788BB80E0089519
:1002A00045B321E030E0B90102C0660F771F8A959F
:1002B000E2F7CB01842785BB80E0089542B321E0BB
:1002C00030E0B90102C0660F771F8A95E2F7CB01D3
:1002D000842782BB80E0089583E0089581E008953B
:1002E0008FB780688FBF08958091A0009091A10082
:1002F00001969093A1008093A0008434954239F434
:1003000080E00E9424011092A1001092A0000895A4
:100310000E9449000E94700184E791E00E94A701B9
:100320008AEF0E94A2010E949601FFCF83B7877BCC
:10033000886083BF83B7887F826083BF89B782600C
:1003400089BF089503B603FC8CBF80E00895009731
:1003500031F09093A3008093A20080E0089581E0A3
:1003600008951F920F920FB60F9211242F933F936F
:100370004F935F936F937F938F939F93AF93BF93AD
:10038000EF93FF93E091A200F091A3000995FF91F4
:10039000EF91BF91AF919F918F917F916F915F91FD
:1003A0004F913F912F910F900FBE0F901F90189576
:1003B0001F920F920FB60F9211242F933F934F93DA
:1003C0005F936F937F938F939F93AF93BF93EF93BD
:1003D000FF93E091A200F091A3000995FF91EF91A6
:1003E000BF91AF919F918F917F916F915F914F914D
:1003F0003F912F910F900FBE0F901F901895F8947A
:02040000FFCF2C
:1004020001010101010101010101010101010101DA
:1004120001010101010101010101010101010101CA
:1004220001010101010101010101010101010101BA
:1004320001010101000100010101010101010101AC
:00000001FF
