:100000000C942A000C9447000C9447000C94470071
:100010000C9447000C9447000C9447000C94470044
:100020000C9447000C9447000C9447000C94470034
:100030000C9447000C9447000C9447000C94470024
:100040000C9447000C9447000C9447000C94470014
:100050000C94470011241FBECFE5D8E0DEBFCDBF12
:1000600010E0A0E6B0E0E2E6F3E002C005900D92F9
:10007000A03AB107D9F720E0A0EAB0E001C01D9294
:10008000A03AB207E1F70E9470010C94AF010C9402
:10009000000080E0D4C0982F969596959695282FCD
:1000A00027709130C9F138F0923009F466C093306E
:1000B00009F494C0C3C0482F50E0FA01EE0FFF1FAF
:1000C000E05AFF4F9081913069F49AB341E050E0DB
:1000D000BA0102C0660F771F2A95E2F79B01292B10
:1000E0002ABBACC09AB361E070E0FB0102C0EE0F26
:1000F000FF1F2A95E2F79F016E2F609596239ABB0A
:10010000440F551FFA01E05AFF4F9181911196C09B
:100110009BB3292B2BBB92C0482F50E0FA01EE0F66
:10012000FF1FE05AFF4F9081913069F497B341E08F
:1001300050E0BA0102C0660F771F2A95E2F79B01D3
:10014000292B27BB7BC097B361E070E0FB0102C0A5
:10015000EE0FFF1F2A95E2F79F016E2F6095962301
:1001600097BB440F551FFA01E05AFF4F918191113F
:1001700065C098B3292B28BB61C0482F50E0FA0115
:10018000EE0FFF1FE05AFF4F9081913069F494B356
:1001900041E050E0BA0102C0660F771F2A95E2F7EE
:1001A0009B01292B24BB4AC094B361E070E0FB01A2
:1001B00002C0EE0FFF1F2A95E2F79F016E2F609598
:1001C000962394BB440F551FFA01E05AFF4F9181CB
:1001D000911134C095B3292B25BB30C0482F50E076
:1001E000FA01EE0FFF1FE05AFF4F9081913069F442
:1001F00091B341E050E0BA0102C0660F771F2A9523
:10020000E2F79B01292B21BB19C091B361E070E09B
:10021000FB0102C0EE0FFF1F2A95E2F79F016E2F30
:100220006095962391BB440F551FFA01E05AFF4F8A
:100230009181911103C092B3292B22BB8F5F803231
:1002400008F429CF80E00895803208F045C0982F47
:1002500096959695969587709130A1F028F09230FA
:10026000F9F0933059F13AC029B330E0A90102C046
:10027000559547958A95E2F7CA018170FB01808305
:1002800080E0089526B330E0A90102C05595479556
:100290008A95E2F7CA018170FB01808380E00895AE
:1002A00023B330E0A90102C0559547958A95E2F73E
:1002B000CA018170FB01808380E0089520B330E0A3
:1002C000A90102C0559547958A95E2F7CA01817048
:1002D000FB01808380E0089583E0089581E0089524
:1002E000CF93DF9300D0CDB7DEB70E9449000E94C4
:1002F0009E0110E0BE016F5F7F4F8AE10E942401E2
:10030000BE016E5F7F4F8BE10E9424012FEF80E7DB
:1003100092E0215080409040E1F700C000008981C8
:10032000811104C01E5C812F0E94AA018A81811163
:10033000E1CF1253812F0E94AA01DCCF83B78864DA
:1003400083BF83B7887F826083BF83B78F7C8062DF
:1003500083BF089503B603FC8CBF80E00895F89432
:02036000FFCFCD
:10036200010101010101010101010101010101017B
:10037200010101010101010101010101010101016B
:10038200010101010101010101010101010101015B
:10039200010101010000000001010101010101014F
:00000001FF
