:100000000C942A000C9447000C94ED010C944700CA
:100010000C9447000C9447000C9447000C94470044
:100020000C9447000C9447000C9447000C94470034
:100030000C9447000C9447000C9447000C94470024
:100040000C9447000C9447000C9447000C94470014
:100050000C94470011241FBECFE5D8E0DEBFCDBF12
:1000600010E0A0E6B0E0EAE2F4E002C005900D92F4
:10007000A03AB107D9F720E0A0EAB0E001C01D9294
:10008000A03AB207E1F70E94E3010C9413020C942A
:10009000000080E0D4C0982F969596959695282FCD
:1000A00027709130C9F138F0923009F466C093306E
:1000B00009F494C0C3C0482F50E0FA01EE0FFF1FAF
:1000C000E05AFF4F9081913069F49AB341E050E0DB
:1000D000BA0102C0660F771F2A95E2F79B01292B10
:1000E0002ABBACC09AB361E070E0FB0102C0EE0F26
:1000F000FF1F2A95E2F79F016E2F609596239ABB0A
:10010000440F551FFA01E05AFF4F9181911196C09B
:100110009BB3292B2BBB92C0482F50E0FA01EE0F66
:10012000FF1FE05AFF4F9081913069F497B341E08F
:1001300050E0BA0102C0660F771F2A95E2F79B01D3
:10014000292B27BB7BC097B361E070E0FB0102C0A5
:10015000EE0FFF1F2A95E2F79F016E2F6095962301
:1001600097BB440F551FFA01E05AFF4F918191113F
:1001700065C098B3292B28BB61C0482F50E0FA0115
:10018000EE0FFF1FE05AFF4F9081913069F494B356
:1001900041E050E0BA0102C0660F771F2A95E2F7EE
:1001A0009B01292B24BB4AC094B361E070E0FB01A2
:1001B00002C0EE0FFF1F2A95E2F79F016E2F609598
:1001C000962394BB440F551FFA01E05AFF4F9181CB
:1001D000911134C095B3292B25BB30C0482F50E076
:1001E000FA01EE0FFF1FE05AFF4F9081913069F442
:1001F00091B341E050E0BA0102C0660F771F2A9523
:10020000E2F79B01292B21BB19C091B361E070E09B
:10021000FB0102C0EE0FFF1F2A95E2F79F016E2F30
:100220006095962391BB440F551FFA01E05AFF4F8A
:100230009181911103C092B3292B22BB8F5F803231
:1002400008F429CF80E00895803208F08BC0982F01
:100250009695969596958770913039F138F0923051
:1002600009F442C0933009F45EC07EC0613071F47D
:100270004BB321E030E0B90102C0660F771F8A95C9
:10028000E2F7CB01842B8BBB80E008954BB321E0D8
:1002900030E0B90102C0660F771F8A95E2F7CB0103
:1002A000809584238BBB80E00895613071F448B35E
:1002B00021E030E0B90102C0660F771F8A95E2F7AE
:1002C000CB01842B88BB80E0089548B321E030E067
:1002D000B90102C0660F771F8A95E2F7CB018095BE
:1002E000842388BB80E00895613071F445B321E038
:1002F00030E0B90102C0660F771F8A95E2F7CB01A3
:10030000842B85BB80E0089545B321E030E0B9013E
:1003100002C0660F771F8A95E2F7CB018095842390
:1003200085BB80E00895613071F442B321E030E094
:10033000B90102C0660F771F8A95E2F7CB01842BC3
:1003400082BB80E0089542B321E030E0B90102C0F1
:10035000660F771F8A95E2F7CB018095842382BBD5
:1003600080E0089583E0089581E0089515BE85B783
:10037000836085BF15BE85B78C6085BF14BE84B70A
:10038000806484BF0895843098F4811105C08BB7D0
:1003900080648BBF80E00895813029F48BB780683A
:1003A0008BBF80E008958BB780628BBF80E008959B
:1003B00081E008958FB780688FBF089561E00E9443
:1003C000240180E008950E9449000E94B60181E066
:1003D0000E94C3010E94DA01FFCF78941F920F920E
:1003E0000FB60F9211242F933F934F935F936F9308
:1003F0007F938F939F93AF93BF93EF93FF938CE182
:100400000E94DE01FF91EF91BF91AF919F918F917B
:100410007F916F915F914F913F912F910F900FBE00
:0A0420000F901F901895F894FFCF7D
:10042A0001010101010101010101010101010101B2
:10043A0001010101010101010101010101010101A2
:10044A000101010101010101010101010101010192
:10045A000101010101010001010101010101010183
:00000001FF
