S0130000537769746368547269616C2E73726563A3
S11300000C942A000C9447000C9447000C9447006D
S11300100C9447000C9447000C9447000C94470040
S11300200C9447000C9447000C9447000C94470030
S11300300C9447000C9447000C9447000C94470020
S11300400C9447000C9447000C9447000C94470010
S11300500C94470011241FBECFE5D8E0DEBFCDBF0E
S113006010E0A0E6B0E0E8E7F8E002C005900D92E9
S1130070A23AB107D9F720E0A2EAB0E001C01D928C
S1130080A73AB207E1F70E94A2030C943A040C9435
S11300900000CF93DF9300D01F92CDB7DEB71A8252
S11300A01B8219827EC189818695869586958A836D
S11300B0898187708B838A81882F90E081309105B4
S11300C009F464C0823091051CF4892B49F066C19F
S11300D08230910509F4B0C0039709F403C15EC1ED
S11300E08981882F90E0880F991F8F599F4FFC01B9
S11300F080818130A9F48AE390E02AE330E0F901B9
S11301002081622F2B81422F50E021E030E002C099
S1130110220F331F4A95E2F7262BFC01208337C1B7
S11301208AE390E02AE330E0F9012081622F2B81F9
S1130130422F50E021E030E002C0220F331F4A95E5
S1130140E2F720952623FC0120838981882F90E003
S1130150880F991F8E599F4FFC018081882309F0D5
S113016016C18BE390E02BE330E0F9012081622F8C
S11301702B81422F50E021E030E002C0220F331FD8
S11301804A95E2F7262BFC01208301C18981882F3F
S113019090E0880F991F8F599F4FFC018081813017
S11301A0A9F487E390E027E330E0F9012081622F8E
S11301B02B81422F50E021E030E002C0220F331F98
S11301C04A95E2F7262BFC012083E3C087E390E005
S11301D027E330E0F9012081622F2B81422F50E088
S11301E021E030E002C0220F331F4A95E2F7209548
S11301F02623FC0120838981882F90E0880F991F92
S11302008E599F4FFC018081882309F0C2C088E386
S113021090E028E330E0F9012081622F2B81422F06
S113022050E021E030E002C0220F331F4A95E2F78C
S1130230262BFC012083ADC08981882F90E0880F94
S1130240991F8F599F4FFC0180818130A9F484E369
S113025090E024E330E0F9012081622F2B81422FCA
S113026050E021E030E002C0220F331F4A95E2F74C
S1130270262BFC0120838FC084E390E024E330E04C
S1130280F9012081622F2B81422F50E021E030E0E0
S113029002C0220F331F4A95E2F720952623FC0162
S11302A020838981882F90E0880F991F8E599F4F52
S11302B0FC018081882309F06EC085E390E025E38A
S11302C030E0F9012081622F2B81422F50E021E0A0
S11302D030E002C0220F331F4A95E2F7262BFC01BF
S11302E0208359C08981882F90E0880F991F8F59E6
S11302F09F4FFC0180818130A9F481E390E021E3E8
S113030030E0F9012081622F2B81422F50E021E05F
S113031030E002C0220F331F4A95E2F7262BFC017E
S113032020833BC081E390E021E330E0F9012081A8
S1130330622F2B81422F50E021E030E002C0220FD7
S1130340331F4A95E2F720952623FC0120838981F7
S1130350882F90E0880F991F8E599F4FFC01808150
S11303608823D9F482E390E022E330E0F90120818C
S1130370622F2B81422F50E021E030E002C0220F97
S1130380331F4A95E2F7262BFC01208306C00000A8
S113039005C0000003C0000001C0000089818F5F18
S11303A089838981803208F47ECE80E00F900F909B
S11303B00F90DF91CF910895CF93DF9300D000D0B9
S11303C000D0CDB7DEB78C837E836D8319828C8198
S11303D0803218F083E0898372C08C81869586957B
S11303E086958A838C8187708B838A81882F90E09D
S11303F08130910511F1823091051CF4892B41F073
S11304005BC08230910571F1039709F440C054C078
S113041089E390E0FC018081882F90E02B81222FDA
S113042030E002C0959587952A95E2F7282F217030
S11304308D819E81FC01208342C086E390E0FC0113
S11304408081882F90E02B81222F30E002C0959587
S113045087952A95E2F7282F21708D819E81FC01D2
S113046020832DC083E390E0FC018081882F90E0FD
S11304702B81222F30E002C0959587952A95E2F7CB
S1130480282F21708D819E81FC01208318C080E378
S113049090E0FC018081882F90E02B81222F30E0B6
S11304A002C0959587952A95E2F7282F21708D81B2
S11304B09E81FC01208303C081E08983000089813F
S11304C026960FB6F894DEBF0FBECDBFDF91CF9155
S11304D00895CF93DF9300D000D01F92CDB7DEB73D
S11304E08C836D8319828C81803218F083E0898338
S11304F0D7C08C818695869586958A838C818770F2
S11305008B838A81882F90E081309105E1F18230DC
S113051091051CF4892B49F0C0C08230910509F47F
S113052060C0039709F48BC0B8C08D818130A9F4F1
S11305308BE390E02BE330E0F9012081622F2B81E3
S1130540422F50E021E030E002C0220F331F4A95D1
S1130550E2F7262BFC012083A3C08BE390E02BE37E
S113056030E0F9012081622F2B81422F50E021E0FD
S113057030E002C0220F331F4A95E2F7209526236C
S1130580FC0120838DC08D818130A9F488E390E043
S113059028E330E0F9012081622F2B81422F50E0C3
S11305A021E030E002C0220F331F4A95E2F7262BE8
S11305B0FC01208375C088E390E028E330E0F90172
S11305C02081622F2B81422F50E021E030E002C0D5
S11305D0220F331F4A95E2F720952623FC0120833E
S11305E05FC08D818130A9F485E390E025E330E09C
S11305F0F9012081622F2B81422F50E021E030E06D
S113060002C0220F331F4A95E2F7262BFC012083F8
S113061047C085E390E025E330E0F9012081622FB3
S11306202B81422F50E021E030E002C0220F331F23
S11306304A95E2F720952623FC01208331C08D8161
S11306408130A9F482E390E022E330E0F9012081D3
S1130650622F2B81422F50E021E030E002C0220FB4
S1130660331F4A95E2F7262BFC01208319C082E34D
S113067090E022E330E0F9012081622F2B81422FA8
S113068050E021E030E002C0220F331F4A95E2F728
S113069020952623FC01208303C081E08983000088
S11306A089810F900F900F900F900F90DF91CF9151
S11306B00895CF93DF93CDB7DEB78FE590E02FE5B4
S11306C030E0F90120812068FC0120830000DF91E3
S11306D0CF910895CF93DF93CDB7DEB761E081E08A
S11306E00E9469028091A2008F5F8093A200909182
S11306F0A20081E0983C08F480E028EC829F802DE1
S11307001124292F281B822F8823C1F460E670E06E
S11307108AE190E00E94BE0380916000882371F416
S11307208091A3008F5F8093A3008091A300853004
S113073029F481E08093A6001092A3000000DF91C9
S1130740CF910895CF93DF93CDB7DEB70E944900D0
S11307500E9459038AE693E00E941D0484E60E94E5
S11307600B040E94D7038091A6008130E1F761E079
S113077081E00E9469021092A600F5CFCF93DF9327
S113078000D000D0CDB7DEB78A837C836B83198217
S11307908B819C81BC018A810E94DC0189838981CF
S11307A00F900F900F900F90DF91CF910895CF93FA
S11307B0DF931F92CDB7DEB7198283E590E0FC0189
S11307C0808189838981877B898389818860898302
S11307D083E590E02981FC01208383E590E0FC011E
S11307E0808189838981887F8983898182608983E3
S11307F083E590E02981FC01208389E590E029E5E7
S113080030E0F90120812260FC01208300000F9078
S1130810DF91CF910895CF93DF9300D0CDB7DEB7AA
S11308208A8319828CE590E02A81FC0120838981E6
S11308300F900F90DF91CF910895CF93DF9300D065
S11308401F92CDB7DEB79B838A8319828A819B81ED
S1130850892B39F08A819B819093A5008093A40011
S113086002C081E0898389810F900F900F90DF91FE
S10B0870CF910895F894FFCF25
S1130878010101010101010101010101010101015C
S1130888010101010101010101010101010101014C
S1130898010101010101010101010101010101013C
S11308A8010101010100000001010101010101012F
S10508B8010039
S9030000FC
