S00E00004B45595041442E7372656358
S11300000C942A000C943F000C943F000C943F0085
S11300100C943F000C943F000C943F000C943F0060
S11300200C943F000C943F000C943F000C943F0050
S11300300C943F000C943F000C943F000C943F0040
S11300400C943F000C943F000C943F000C943F0030
S11300500C943F0011241FBECFE5D8E0DEBFCDBF16
S113006010E0A0E6B0E0E0E6F5E002C005900D92F5
S1130070AA3BB107D9F70E948B020C94AE020C94F0
S1130080000080E0D4C0982F969596959695282FD9
S113009027709130C9F138F0923009F466C093307A
S11300A009F494C0C3C0482F50E0FA01EE0FFF1FBB
S11300B0E05AFF4F9081913069F49AB341E050E0E7
S11300C0BA0102C0660F771F2A95E2F79B01292B1C
S11300D02ABBACC09AB361E070E0FB0102C0EE0F32
S11300E0FF1F2A95E2F79F016E2F609596239ABB16
S11300F0440F551FFA01E05AFF4F9181911196C0A8
S11301009BB3292B2BBB92C0482F50E0FA01EE0F72
S1130110FF1FE05AFF4F9081913069F497B341E09B
S113012050E0BA0102C0660F771F2A95E2F79B01DF
S1130130292B27BB7BC097B361E070E0FB0102C0B1
S1130140EE0FFF1F2A95E2F79F016E2F609596230D
S113015097BB440F551FFA01E05AFF4F918191114B
S113016065C098B3292B28BB61C0482F50E0FA0121
S1130170EE0FFF1FE05AFF4F9081913069F494B362
S113018041E050E0BA0102C0660F771F2A95E2F7FA
S11301909B01292B24BB4AC094B361E070E0FB01AE
S11301A002C0EE0FFF1F2A95E2F79F016E2F6095A4
S11301B0962394BB440F551FFA01E05AFF4F9181D7
S11301C0911134C095B3292B25BB30C0482F50E082
S11301D0FA01EE0FFF1FE05AFF4F9081913069F44E
S11301E091B341E050E0BA0102C0660F771F2A952F
S11301F0E2F79B01292B21BB19C091B361E070E0A8
S1130200FB0102C0EE0FFF1F2A95E2F79F016E2F3C
S11302106095962391BB440F551FFA01E05AFF4F96
S11302209181911103C092B3292B22BB8F5F80323D
S113023008F429CF80E00895803208F045C0982F53
S113024096959695969587709130A1F028F0923006
S1130250F9F0933059F13AC029B330E0A90102C052
S1130260559547958A95E2F7CA018170FB01808311
S113027080E0089526B330E0A90102C05595479562
S11302808A95E2F7CA018170FB01808380E00895BA
S113029023B330E0A90102C0559547958A95E2F74A
S11302A0CA018170FB01808380E0089520B330E0AF
S11302B0A90102C0559547958A95E2F7CA01817054
S11302C0FB01808380E0089583E0089581E0089530
S11302D0803208F08BC0982F9695969596958770E6
S11302E0913039F138F0923009F442C0933009F476
S11302F05EC07EC0613071F44BB321E030E0B901DF
S113030002C0660F771F8A95E2F7CB01842B8BBB63
S113031080E008954BB321E030E0B90102C0660FDC
S1130320771F8A95E2F7CB01809584238BBB80E00D
S11303300895613071F448B321E030E0B90102C09E
S1130340660F771F8A95E2F7CB01842B88BB80E088
S1130350089548B321E030E0B90102C0660F771F69
S11303608A95E2F7CB018095842388BB80E00895C9
S1130370613071F445B321E030E0B90102C0660F89
S1130380771F8A95E2F7CB01842B85BB80E0089523
S113039045B321E030E0B90102C0660F771F8A95AA
S11303A0E2F7CB018095842385BB80E0089561301A
S11303B071F442B321E030E0B90102C0660F771F47
S11303C08A95E2F7CB01842B82BB80E0089542B387
S11303D021E030E0B90102C0660F771F8A95E2F789
S11303E0CB018095842382BB80E0089583E0089547
S11303F081E00895813061F028F0823079F0833013
S113040099F018C01BBA8BB3682B6BBB80E00895BE
S113041018BA88B3682B68BB80E0089515BA85B311
S1130420682B65BB80E0089512BA82B3682B62BB67
S113043080E0089581E0089561E080E00E94680111
S113044061E081E00E94680161E082E00E9468014D
S11304500895AF92BF92CF92DF92EF92FF920F93E3
S11304601F93CF93DF931F92CDB7DEB7009709F4A4
S113047046C05C0100E040C0C02ED12CF601E4551A
S1130480FF4F60E080810E94680110E02BC0E12EE4
S1130490F12CF701E755FF4FBE016F5F7F4F80815D
S11304A00E941C01998191111CC0C701880F991FDA
S11304B08E0D9F1D80569F4FFC01EC0DFD1D80810C
S11304C0F501808309C0BE016F5F7F4FF701E755D7
S11304D0FF4F80810E941C0189818823A1F380E061
S11304E00EC01F5F133098F2F601E455FF4F61E030
S11304F080810E9468010F5F033008F4BDCF0F9024
S1130500DF91CF911F910F91FF90EF90DF90CF90EB
S1130510BF90AF900895CF93DF931F92CDB7DEB70E
S11305200E9441000E941C028FEF8983CE01019634
S11305300E94290269816F3FC9F381E00E94A102F0
S1130540F5CF853048F4E62FF0E0E155FF4F6081A8
S11305500E94FA0180E0089581E00895F894FFCFA5
S11305600100010001000000000000000101010180
S11305700101010101010101010101010101010167
S11305800101010101010101010101010101010157
S11305900101010100010001010101010101010149
S11305A0010203040506070809030405000102000B
S10D05B00102030405060708090010
S9030000FC
