:100000000C942A000C9447000C9447000C94470071
:100010000C9447000C9447000C9447000C94470044
:100020000C9447000C9447000C9447000C94470034
:100030000C9447000C9447000C9447000C94470024
:100040000C9447000C9447000C9447000C94470014
:100050000C94470011241FBECFE5D8E0DEBFCDBF12
:1000600010E0A0E6B0E0E0E1FDE002C005900D92F6
:10007000A03AB107D9F720E0A0EAB0E001C01D9294
:10008000A03AB207E1F70E9471030C9486060C9423
:100090000000CF93DF9300D01F92CDB7DEB78B83E4
:1000A00019828B81882331F48B81803419F48B8100
:1000B000803C19F081E0898311C087E290E0FC0167
:1000C00080818A838A818F738A839A818B81892B2D
:1000D0008A8387E290E02A81FC01208389810F9046
:1000E0000F900F90DF91CF910895CF93DF9300D0C1
:1000F0001F92CDB7DEB78B8319828B81803219F4C2
:100100008B81882319F081E0898311C087E290E018
:10011000FC0180818A838A818F7D8A839A818B8189
:10012000892B8A8387E290E02A81FC0120838981E0
:100130000F900F900F90DF91CF910895CF93DF93A1
:1001400000D01F92CDB7DEB78B8319828B818830A8
:1001500018F081E089830CC087E290E0FC01808187
:100160008A838A8180728A839A818B81892B8A8390
:1001700089810F900F900F90DF91CF910895CF93C9
:10018000DF9300D01F92CDB7DEB78B8319828B81AE
:10019000803819F081E089830CC086E290E0FC0190
:1001A00080818A838A818F778A839A818B81892B48
:1001B0008A8389810F900F900F90DF91CF910895DE
:1001C000CF93DF9300D01F92CDB7DEB78B83198218
:1001D00086E290E0FC0180818A838A81887F8A831D
:1001E0009A818B81892B8A8386E290E02A81FC01A7
:1001F000208389810F900F900F90DF91CF91089508
:10020000CF93DF93CDB7DEB728970FB6F894DEBF54
:100210000FBECDBF98878F831D8219821A821B82E1
:100220001C8286E290E0FC0180818E838E818F7B30
:100230008E838E8180648E8386E290E02E81FC0125
:10024000208316C089819A81AB81BC810196A11D52
:10025000B11D89839A83AB83BC8389819A81AB81E9
:10026000BC81883E9340A105B10510F081E08D83EB
:1002700086E290E0FC018081882F90E080749927CD
:10028000892B49F089819A81AB81BC81883E93405A
:10029000A105B105B8F285E290E0FC0120818F81D3
:1002A0009885FC012083000028960FB6F894DEBFE5
:1002B0000FBECDBFDF91CF910895CF93DF9300D0D4
:1002C0001F92CDB7DEB71A821B8219827EC1898147
:1002D0008695869586958A83898187708B838A81A6
:1002E000882F90E08130910509F464C08230910537
:1002F0001CF4892B49F066C18230910509F4B0C025
:10030000039709F403C15EC18981882F90E0880FAB
:10031000991F805A9F4FFC0180818130A9F48AE3A4
:1003200090E02AE330E0F9012081622F2B81422FF7
:1003300050E021E030E002C0220F331F4A95E2F77F
:10034000262BFC01208337C18AE390E02AE330E0CA
:10035000F9012081622F2B81422F50E021E030E013
:1003600002C0220F331F4A95E2F720952623FC0195
:1003700020838981882F90E0880F991F8F599F4F84
:10038000FC018081882309F016C18BE390E02BE308
:1003900030E0F9012081622F2B81422F50E021E0D3
:1003A00030E002C0220F331F4A95E2F7262BFC01F2
:1003B000208301C18981882F90E0880F991F805A7E
:1003C0009F4FFC0180818130A9F487E390E027E30F
:1003D00030E0F9012081622F2B81422F50E021E093
:1003E00030E002C0220F331F4A95E2F7262BFC01B2
:1003F0002083E3C087E390E027E330E0F901208128
:10040000622F2B81422F50E021E030E002C0220F0A
:10041000331F4A95E2F720952623FC01208389812A
:10042000882F90E0880F991F8F599F4FFC01808182
:10043000882309F0C2C088E390E028E330E0F901A6
:100440002081622F2B81422F50E021E030E002C05A
:10045000220F331F4A95E2F7262BFC012083ADC003
:100460008981882F90E0880F991F805A9F4FFC0147
:1004700080818130A9F484E390E024E330E0F90145
:100480002081622F2B81422F50E021E030E002C01A
:10049000220F331F4A95E2F7262BFC0120838FC0E1
:1004A00084E390E024E330E0F9012081622F2B8186
:1004B000422F50E021E030E002C0220F331F4A9566
:1004C000E2F720952623FC0120838981882F90E084
:1004D000880F991F8F599F4FFC018081882309F055
:1004E0006EC085E390E025E330E0F9012081622FC2
:1004F0002B81422F50E021E030E002C0220F331F59
:100500004A95E2F7262BFC01208359C08981882F68
:1005100090E0880F991F805A9F4FFC0180818130A5
:10052000A9F481E390E021E330E0F9012081622F1A
:100530002B81422F50E021E030E002C0220F331F18
:100540004A95E2F7262BFC0120833BC081E390E033
:1005500021E330E0F9012081622F2B81422F50E00E
:1005600021E030E002C0220F331F4A95E2F72095C8
:100570002623FC0120838981882F90E0880F991F12
:100580008F599F4FFC0180818823D9F482E390E04A
:1005900022E330E0F9012081622F2B81422F50E0CD
:1005A00021E030E002C0220F331F4A95E2F7262BEC
:1005B000FC01208306C0000005C0000003C000004D
:1005C00001C0000089818F5F89838981803208F4AE
:1005D0007ECE80E00F900F900F90DF91CF91089525
:1005E000AF92BF92CF92DF92EF92FF920F931F9341
:1005F000CF93DF93CDB7DEB764970FB6F894DEBF25
:100600000FBECDBF6D837E838F83988729873A87FE
:100610004B875C87ED86FE860F87188BA98ABA8A7E
:10062000CB8ADC8A2D853E854F85588989A19AA180
:10063000ABA1BCA1820F931FA41FB51F89839A830E
:10064000AB83BC8329893A894B895C898D859E85DA
:10065000AF85B88979018A01E81AF90A0A0B1B0BE0
:10066000D801C70129813A814B815C81BC01CD0150
:100670000E941B06DC01CB0189839A83AB83BC8378
:1006800029853A854B855C858D819E81AF81B885B2
:10069000281B390B4A0B5B0B89819A81AB81BC818A
:1006A000BC01CD010E942B06DA01C90189839A831E
:1006B000AB83BC8389819A81AB81BC81BC01CD01B4
:1006C00064960FB6F894DEBF0FBECDBFDF91CF9119
:1006D0001F910F91FF90EF90DF90CF90BF90AF9060
:1006E0000895AF92BF92CF92DF92EF92FF920F9355
:1006F0001F93CF93DF93CDB7DEB763970FB6F89410
:10070000DEBF0FBECDBF0E945D0180E40E944900A4
:1007100080E20E94750084E00E949E0087E00E94B3
:10072000E00080E80E94BF000E9447041B8A1982F3
:100730001A821B821C8280E29EE40E94E904CE01A0
:1007400043960E9400018B89882F90E0A0E0B0E0E2
:100750002B2F2F932A2F2F93292F2F938F930F2EE9
:10076000F4ECAF2EF9E0BF2EC12CD12CF02D1EEEF3
:10077000E12E12E0F12E00E010E02FEF30E040E03B
:1007800050E060E070E0CB010E94F0020F900F900B
:100790000F900F90DC01CB0189839A83AB83BC83DC
:1007A00089819A810E94D20480E090E0A0E2B1E4C5
:1007B0008D839E83AF83B88720E030E04AEF54E416
:1007C0006D817E818F8198850E948605DC01CB0139
:1007D00089879A87AB87BC8720E030E040E85FE3F9
:1007E00069857A858B859C850E94000588232CF479
:1007F00081E090E09E878D873FC020E03FEF4FE78C
:1008000057E469857A858B859C850E948105181639
:100810004CF520E030E040E251E46D817E818F8133
:1008200098850E948605DC01CB01BC01CD010E94A8
:100830000505DC01CB019E878D870FC088EC90E019
:10084000988B8F878F8598890197F1F7988B8F8781
:100850008D859E8501979E878D878D859E85892BA9
:1008600069F714C069857A858B859C850E9405058A
:10087000DC01CB019E878D878D859E859A8B898B28
:1008800089899A890197F1F79A8B898B58CFCF93F1
:10089000DF9300D0CDB7DEB71A8219828EE490E0E4
:1008A000FC01808191819A83898389819A81877EE5
:1008B0009C7F9A83898389819A81886192609A83D7
:1008C00089838EE490E029813A81FC013183208381
:1008D0008EE490E0FC01808191819A8389838981F3
:1008E0009A81887F9A83898389819A8182609A8399
:1008F00089838EE490E029813A81FC013183208351
:1009000089E590E029E530E0F90120812061FC01D2
:1009100020838EE490E0FC01808191819A83898319
:1009200089819A819F739A83898389819A8190684A
:100930009A8389838EE490E029813A81FC01318396
:1009400020838EE490E0FC01808191819A838983E9
:1009500089819A819F7C9A83898389819A81906217
:100960009A8389838EE490E029813A81FC01318366
:1009700020838EE490E0FC01808191819A838983B9
:1009800089819A818F7B9A8389838EE490E0298183
:100990003A81FC013183208300000F900F90DF919A
:1009A000CF910895CF93DF9300D01F92CDB7DEB7DC
:1009B0009B838A8319828AE490E02A813B81FC012F
:1009C0003183208389810F900F900F90DF91CF9119
:1009D0000895CF93DF9300D01F92CDB7DEB79B83EE
:1009E0008A83198286E490E02A813B81FC0131836D
:1009F000208389810F900F900F90DF91CF91089500
:100A00000E94340508F481E008950E94600588F092
:100A10009F5798F0B92F9927B751B0F0E1F0660FC2
:100A2000771F881F991F1AF0BA95C9F714C0B13003
:100A300091F00E947A05B1E008950C947A05672F31
:100A4000782F8827B85F39F0B93FCCF38695779532
:100A50006795B395D9F73EF490958095709561951B
:100A60007F4F8F4F9F4F0895990F0008550FAA0B86
:100A7000E0E8FEEF16161706E807F907C0F01216B1
:100A80001306E407F50798F0621B730B840B950BB4
:100A900039F40A2661F0232B242B252B21F4089509
:100AA0000A2609F4A140A6958FEF811D811D0895A6
:100AB00057FD9058440F551F59F05F3F71F047950F
:100AC000880F97FB991F61F09F3F79F087950895F4
:100AD000121613061406551FF2CF4695F1DF08C013
:100AE000161617061806991FF1CF86957105610530
:100AF00008940895E894BB2766277727CB0197F9D8
:100B000008950E94340508F48FEF08950E94990516
:100B10000C940A060E94FC0538F00E94030620F09F
:100B2000952311F00C94F3050C94F90511240C9401
:100B30007B050E94580570F3959FC1F3950F50E017
:100B4000551F629FF001729FBB27F00DB11D639F7F
:100B5000AA27F00DB11DAA1F649F6627B00DA11D25
:100B6000661F829F2227B00DA11D621F739FB00DCB
:100B7000A11D621F839FA00D611D221F749F33273B
:100B8000A00D611D231F849F600D211D822F762FD4
:100B90006A2F11249F5750409AF0F1F088234AF0B1
:100BA000EE0FFF1FBB1F661F771F881F915050401D
:100BB000A9F79E3F510580F00C94F3050C947B053A
:100BC0005F3FE4F3983ED4F3869577956795B795A4
:100BD000F795E7959F5FC1F7FE2B880F911D9695BE
:100BE000879597F9089597F99F6780E870E060E02E
:100BF00008959FEF80EC089500240A9416161706B6
:100C000018060906089500240A94121613061406FD
:100C100005060895092E0394000C11F4882352F060
:100C2000BB0F40F4BF2B11F460FF04C06F5F7F4F18
:100C30008F4F9F4F0895DB018F939F930E944A0629
:100C4000BF91AF91A29F800D911DA39F900DB29F68
:100C5000900D11240895052E97FB1EF400940E9418
:100C6000420657FD07D00E94550607FC03D04EF4FC
:100C70000C94420650954095309521953F4F4F4F2B
:100C80005F4F089590958095709561957F4F8F4F38
:100C90009F4F08950E947706A59F900DB49F900DD9
:100CA000A49F800D911D11240895A1E21A2EAA1B64
:100CB000BB1BFD010DC0AA1FBB1FEE1FFF1FA2170C
:100CC000B307E407F50720F0A21BB30BE40BF50B09
:100CD000661F771F881F991F1A9469F76095709592
:100CE000809590959B01AC01BD01CF010895A29F15
:100CF000B001B39FC001A39F700D811D1124911DF0
:100D0000B29F700D811D1124911D0895F894FFCF9D
:100D100001010101010101010001010101010101C4
:100D200001010101010101010101010101010101B3
:100D300001010101010101010101010101010101A3
:100D40000101010100010001010101010101010195
:00000001FF
