:100000000C942A000C943C000C943C000C943C0092
:100010000C943C000C943C000C943C000C943C0070
:100020000C943C000C943C000C943C000C943C0060
:100030000C9491000C943C000C943C000C943C00FB
:100040000C943C000C943C000C943C000C943C0040
:100050000C943C0011241FBECFE5D8E0DEBFCDBF1D
:1000600020E0A0E6B0E001C01D92A836B207E1F79B
:100070000E943E000C94D8000C940000CF93DF93B4
:10008000CDB7DEB728970FB6F894DEBF0FBECDBF51
:10009000CE01019628E0FC0111922A95E9F720E4AF
:1000A0002A830E945400FFCF009789F1DC01159646
:1000B0002C91222311F0243061F5FC01368134307B
:1000C00050F54481483011F0411127C0DC011296EF
:1000D0005C91503211F0511122C06DB1DC011396C8
:1000E000EC91139711967C911197232B242B252BA0
:1000F0002E2B272B262B2DB93EB117962C91179717
:10010000232B2EB98C918093600080E0089581E0CC
:10011000089583E0089584E0089584E0089582E0DE
:1001200008951F920F920FB60F9211242F933F93B1
:100130004F935F936F937F938F939F93AF93BF93EF
:10014000EF93FF937C9B23C08091640090916300A8
:10015000891778F4E0916500F0916600E80FF11DD1
:1001600090819FB98F5F809364008EB18F778EB935
:100170000EC010926700109263008EB18F778EB917
:10018000E0916100F0916200309709F00995FF91CC
:10019000EF91BF91AF919F918F917F916F915F91FF
:1001A0004F913F912F910F900FBE0F901F90189578
:0401B000F894FFCFF1
:00000001FF
