:100000000C942A000C9447000C9447000C94470071
:100010000C9447000C9447000C9447000C94470044
:100020000C9447000C9447000C9447000C94470034
:100030000C9447000C9447000C9447000C94470024
:100040000C9447000C9447000C9447000C94470014
:100050000C94470011241FBECFE5D8E0DEBFCDBF12
:1000600010E0A0E6B0E0E0E2F5E002C005900D92FD
:10007000A83BB107D9F720E0A8EBB0E001C01D9282
:10008000A83BB207E1F70E9474020C948E020C9414
:10009000000080E0D4C0982F969596959695282FCD
:1000A00027709130C9F138F0923009F466C093306E
:1000B00009F494C0C3C0482F50E0FA01EE0FFF1FAF
:1000C000E858FF4F9081913069F49AB341E050E0D5
:1000D000BA0102C0660F771F2A95E2F79B01292B10
:1000E0002ABBACC09AB361E070E0FB0102C0EE0F26
:1000F000FF1F2A95E2F79F016E2F609596239ABB0A
:10010000440F551FFA01E858FF4F9181911196C095
:100110009BB3292B2BBB92C0482F50E0FA01EE0F66
:10012000FF1FE858FF4F9081913069F497B341E089
:1001300050E0BA0102C0660F771F2A95E2F79B01D3
:10014000292B27BB7BC097B361E070E0FB0102C0A5
:10015000EE0FFF1F2A95E2F79F016E2F6095962301
:1001600097BB440F551FFA01E858FF4F9181911139
:1001700065C098B3292B28BB61C0482F50E0FA0115
:10018000EE0FFF1FE858FF4F9081913069F494B350
:1001900041E050E0BA0102C0660F771F2A95E2F7EE
:1001A0009B01292B24BB4AC094B361E070E0FB01A2
:1001B00002C0EE0FFF1F2A95E2F79F016E2F609598
:1001C000962394BB440F551FFA01E858FF4F9181C5
:1001D000911134C095B3292B25BB30C0482F50E076
:1001E000FA01EE0FFF1FE858FF4F9081913069F43C
:1001F00091B341E050E0BA0102C0660F771F2A9523
:10020000E2F79B01292B21BB19C091B361E070E09B
:10021000FB0102C0EE0FFF1F2A95E2F79F016E2F30
:100220006095962391BB440F551FFA01E858FF4F84
:100230009181911103C092B3292B22BB8F5F803231
:1002400008F429CF80E00895803208F08BC0982F01
:100250009695969596958770913039F138F0923051
:1002600009F442C0933009F45EC07EC0613071F47D
:100270004BB321E030E0B90102C0660F771F8A95C9
:10028000E2F7CB01842B8BBB80E008954BB321E0D8
:1002900030E0B90102C0660F771F8A95E2F7CB0103
:1002A000809584238BBB80E00895613071F448B35E
:1002B00021E030E0B90102C0660F771F8A95E2F7AE
:1002C000CB01842B88BB80E0089548B321E030E067
:1002D000B90102C0660F771F8A95E2F7CB018095BE
:1002E000842388BB80E00895613071F445B321E038
:1002F00030E0B90102C0660F771F8A95E2F7CB01A3
:10030000842B85BB80E0089545B321E030E0B9013E
:1003100002C0660F771F8A95E2F7CB018095842390
:1003200085BB80E00895613071F442B321E030E094
:10033000B90102C0660F771F8A95E2F7CB01842BC3
:1003400082BB80E0089542B321E030E0B90102C0F1
:10035000660F771F8A95E2F7CB018095842382BBD5
:1003600080E0089583E0089581E00895813061F090
:1003700028F0823079F0833099F018C01BBA8BB323
:10038000682B6BBB80E0089518BA88B3682B68BBF4
:1003900080E0089515BA85B3682B65BB80E00895A9
:1003A00012BA82B3682B62BB80E0089581E00895A1
:1003B000CF93C82F61E080E10E94240160E081E1D9
:1003C0000E9424016C2F83E00E94B60161E082E16B
:1003D0000E94240183EF91E00197F1F700C0000033
:1003E00060E082E10E942401CF910895CF93C82F4D
:1003F00060E080E10E94240160E081E10E9424012C
:100400006C2F83E00E94B60161E082E10E9424012A
:1004100083EF91E00197F1F700C0000060E082E116
:100420000E942401CF9108958FE097E20197F1F7A0
:1004300000C0000088E30E94F6018CE00E94F601F3
:1004400081E00E94F6010895823078F4613178F4F9
:10045000882329F0813011F4605C01C060E080E8FD
:10046000860F0E94F60180E0089581E0089581E002
:100470000895EF92FF920F931F93CF93DF9300970E
:1004800029F1693028F5423028F5213128F5E22E8E
:10049000F42E062FEC01862F880F880F880F805CC2
:1004A0000E94F60110E007C0FE01E10FF11D8081FE
:1004B0000E94D8011F5F1830B8F36E2D8F2D0E9457
:1004C0002402802F0E94D80180E007C081E005C08F
:1004D00081E003C081E001C081E0DF91CF911F91F5
:1004E0000F91FF90EF9008950E9449000E9414021E
:1004F0002FE040E060E080E790E00E94390220E0D9
:1005000041E061E088E690E00E9439022EE041E09F
:1005100062E080E690E00E943902FFCFF894FFCFBE
:100520000000040E040000001818181818181818F5
:1005300003030303030303030000000000000000A3
:10054000010101010101010101010101010101019B
:10055000010101010101010101010101010101018B
:10056000010101010101010101010101010101017B
:0805700001010101010101017B
:00000001FF
